S01000004578616D656E5F322E7372656325
S11300000C9434000C9431010C9440010C9446007F
S11300100C9446000C9446000C9446000C94460044
S11300200C9446000C9446000C9446000C94460034
S11300300C9446000C9446000C9446000C94460024
S11300400C9446000C9446000C9446000C94460014
S11300500C9446000C9446000C9446000C94460004
S11300600C9446000C94460011241FBECFEFD8E038
S1130070DEBFCDBF21E0A0E0B1E001C01D92AD30F4
S1130080B207E1F70E944F010C94CA030C940000DC
S1130090569A84B5806884BD84B5836084BD85B573
S11300A0826085BD84B1866084B98FE19EE49093BB
S11300B0870080938600E0E8F0E08081806A808396
S11300C0808182608083E1E8F0E0808188618083C0
S11300D08081816080830895CF92DF92EF92FF92B6
S11300E0ECE7F0E0808380818064808380818F7D71
S11300F08083EAE7F0E08081876080838081806884
S11301008083808180648083808186FDFDCF6091BF
S1130110780070E080E090E00E94CF026B017C01E7
S11301206091790070E0762F6627072E000C880B0B
S1130130990B0E94D102A70196010E94C201FF906F
S1130140EF90DF90CF90089520E030E040EA50E453
S11301500E945D0320E030EC4FE754E40E942E023D
S113016020E030E040E151E40E945D032CEE31E5F3
S113017048EB5EE30E942E0220E030E048EF52E4B8
S11301800E94C2010E94A00267BD089520E030E0F1
S113019040EA50E40E945D0320E030EC4FE754E471
S11301A00E942E0220E030E040E951E40E945D0309
S11301B02CEE31E548E35EE30E942E0220E030ECB1
S11301C049E754E40E94C2010E94A00270938B008C
S11301D060938A00089520E030E040EA50E40E94F1
S11301E05D0320E030EC4FE754E40E942E0220E04F
S11301F030E040E152E40E945D032CEE31E548E337
S11302005EE30E942E0220E030EC49E754E40E94B1
S1130210C2010E94A002709389006093880008952F
S1130220CF93DF93EC01688179818A819B810E945D
S1130230EB006C817D818E819F810E94C600688560
S113024079858A859B850E94A400DF91CF910895CA
S1130250E9E6F0E080818C6080838DB383608DBBA0
S113026008951F920F920FB60F9211248F9381E07D
S113027080930C018F910F900FBE0F901F901895D3
S11302801F920F920FB60F9211248F9382E08093E6
S11302900C018F910F900FBE0F901F901895CF9364
S11302A0DF93CDB7DEB768970FB6F894DEBF0FBE05
S11302B0CDBF1D861E861F86188A198A1A8A1B8A34
S11302C01C8A1D8A1E8A1F8A188E0E9428010E9479
S11302D04800789400E011E081E00E946C00F8018D
S11302E0608371838283938382E00E946C00F801AF
S11302F0648375838683978383E00E946C00F8018E
S113030060877187828793876081718182819381FD
S11303100E94EB00F80164817581868197810E94B7
S1130320C600F80160857185828593850E94A400CA
S113033080910C01813099F48CE0F801DE01119672
S113034001900D928A95E1F78CE0FE013196DE0171
S11303501D9601900D928A95E1F710920C018091FF
S11303600C01823021F4CE010D960E941001FFEFA2
S113037020E782E0F15020408040E1F700C0000017
S1130380ABCF5058BB27AA270E94D9010C94230352
S11303900E94150338F00E941C0320F039F49F3F9B
S11303A019F426F40C9412030EF4E095E7FB0C9474
S11303B00C03E92F0E94340358F3BA17620773073A
S11303C08407950720F079F4A6F50C9456030EF4EF
S11303D0E0950B2EBA2FA02D0B01B90190010C0151
S11303E0CA01A0011124FF27591B99F0593F50F469
S11303F0503E68F11A16F040A22F232F342F4427C1
S1130400585FF3CF469537952795A795F0405395B8
S1130410C9F77EF41F16BA0B620B730B840BBAF088
S11304209150A1F0FF0FBB1F661F771F881FC2F7F3
S11304300EC0BA0F621F731F841F48F48795779507
S11304406795B795F7959E3F08F0B0CF9395880FC1
S113045008F09927EE0F9795879508950E94420218
S11304600C9423030E941C0358F00E94150340F0CF
S113047029F45F3F29F00C940C0351110C94570399
S11304800C9412030E94340368F39923B1F35523A7
S113049091F3951B550BBB27AA2762177307840793
S11304A038F09F5F5F4F220F331F441FAA1FA9F329
S11304B035D00E2E3AF0E0E832D091505040E69517
S11304C0001CCAF72BD0FE2F29D0660F771F881F78
S11304D0BB1F261737074807AB07B0E809F0BB0B6B
S11304E0802DBF01FF2793585F4F3AF09E3F51057F
S11304F078F00C940C030C9457035F3FE4F3983E9C
S1130500D4F3869577956795B795F7959F5FC9F767
S1130510880F911D9695879597F90895E1E0660FE8
S1130520771F881FBB1F621773078407BA0720F061
S1130530621B730B840BBA0BEE1F88F7E0950895CA
S11305400E943C0388F09F5798F0B92F9927B75120
S1130550B0F0E1F0660F771F881F991F1AF0BA9563
S1130560C9F714C0B13091F00E945603B1E0089568
S11305700C945603672F782F8827B85F39F0B93F5A
S1130580CCF3869577956795B395D9F73EF4909516
S11305908095709561957F4F8F4F9F4F0895E89494
S11305A009C097FB3EF490958095709561957F4FB7
S11305B08F4F9F4F9923A9F0F92F96E9BB27939565
S11305C0F695879577956795B795F111F8CFFAF475
S11305D0BB0F11F460FF1BC06F5F7F4F8F4F9F4FA6
S11305E016C0882311F096E911C0772321F09EE804
S11305F0872F762F05C0662371F096E8862F70E06A
S113060060E02AF09A95660F771F881FDAF7880F43
S11306109695879597F9089597F99F6780E870E014
S113062060E008959FEF80EC089500240A94161664
S1130630170618060906089500240A9412161306CC
S1130640140605060895092E0394000C11F488235A
S113065052F0BB0F40F4BF2B11F460FF04C06F5F76
S11306607F4F8F4F9F4F089557FD9058440F551F4C
S113067059F05F3F71F04795880F97FB991F61F020
S11306809F3F79F087950895121613061406551F97
S1130690F2CF4695F1DF08C0161617061806991F03
S11306A0F1CF86957105610508940895E894BB27F8
S11306B066277727CB0197F908950E9470030C945D
S11306C023030E94150338F00E941C0320F0952395
S11306D011F00C940C030C94120311240C94570382
S11306E00E94340370F3959FC1F3950F50E0551F9A
S11306F0629FF001729FBB27F00DB11D639FAA2773
S1130700F00DB11DAA1F649F6627B00DA11D661FC1
S1130710829F2227B00DA11D621F739FB00DA11DE2
S1130720621F839FA00D611D221F749F3327A00D9C
S1130730611D231F849F600D211D822F762F6A2F38
S113074011249F5750409AF0F1F088234AF0EE0F9D
S1130750FF1FBB1F661F771F881F91505040A9F7CA
S11307609E3F510580F00C940C030C9457035F3F9B
S1130770E4F3983ED4F3869577956795B795F79506
S1130780E7959F5FC1F7FE2B880F911D969587957E
S10B079097F90895F894FFCFD6
S9030000FC
